{
  "contractName": "Donation",
  "abi": [
    {
      "constant": true,
      "inputs": [
        {
          "name": "",
          "type": "address"
        }
      ],
      "name": "referred",
      "outputs": [
        {
          "name": "",
          "type": "address"
        }
      ],
      "payable": false,
      "stateMutability": "view",
      "type": "function"
    },
    {
      "inputs": [],
      "payable": false,
      "stateMutability": "nonpayable",
      "type": "constructor"
    },
    {
      "constant": false,
      "inputs": [
        {
          "name": "_referral",
          "type": "address"
        }
      ],
      "name": "donation",
      "outputs": [
        {
          "name": "",
          "type": "bool"
        }
      ],
      "payable": true,
      "stateMutability": "payable",
      "type": "function"
    },
    {
      "constant": true,
      "inputs": [],
      "name": "getParticipants",
      "outputs": [
        {
          "name": "all",
          "type": "address[]"
        },
        {
          "name": "recent",
          "type": "address[]"
        }
      ],
      "payable": false,
      "stateMutability": "view",
      "type": "function"
    },
    {
      "constant": true,
      "inputs": [],
      "name": "getTotal",
      "outputs": [
        {
          "name": "totalDonation",
          "type": "uint256"
        },
        {
          "name": "contractbalance",
          "type": "uint256"
        }
      ],
      "payable": false,
      "stateMutability": "view",
      "type": "function"
    },
    {
      "constant": false,
      "inputs": [
        {
          "name": "_amount",
          "type": "uint256"
        }
      ],
      "name": "withdraw",
      "outputs": [
        {
          "name": "",
          "type": "bool"
        }
      ],
      "payable": false,
      "stateMutability": "nonpayable",
      "type": "function"
    }
  ],
  "bytecode": "0x608060405234801561001057600080fd5b5033600560006101000a81548173ffffffffffffffffffffffffffffffffffffffff021916908373ffffffffffffffffffffffffffffffffffffffff16021790555061102f806100616000396000f30060806040526004361061006d576000357c0100000000000000000000000000000000000000000000000000000000900463ffffffff1680632e1a7d4d146100725780635aa68ac0146100b7578063775a25e31461016b578063a0388ca61461019d578063f457ee5a14610220575b600080fd5b34801561007e57600080fd5b5061009d6004803603810190808035906020019092919050505061026e565b604051808215151515815260200191505060405180910390f35b3480156100c357600080fd5b506100cc61043e565b604051808060200180602001838103835285818151815260200191508051906020019060200280838360005b838110156101135780820151818401526020810190506100f8565b50505050905001838103825284818151815260200191508051906020019060200280838360005b8381101561015557808201518184015260208101905061013a565b5050505090500194505050505060405180910390f35b34801561017757600080fd5b506101806105c9565b604051808381526020018281526020019250505060405180910390f35b3480156101a957600080fd5b506101de600480360381019080803573ffffffffffffffffffffffffffffffffffffffff1690602001909291905050506105ef565b604051808273ffffffffffffffffffffffffffffffffffffffff1673ffffffffffffffffffffffffffffffffffffffff16815260200191505060405180910390f35b610254600480360381019080803573ffffffffffffffffffffffffffffffffffffffff169060200190929190505050610622565b604051808215151515815260200191505060405180910390f35b6000600560009054906101000a900473ffffffffffffffffffffffffffffffffffffffff1673ffffffffffffffffffffffffffffffffffffffff163373ffffffffffffffffffffffffffffffffffffffff16141515610335576040517f08c379a00000000000000000000000000000000000000000000000000000000081526004018080602001828103825260138152602001807f6f6e6c79206f776e65722063616e2063616c6c0000000000000000000000000081525060200191505060405180910390fd5b60008211801561035c57503073ffffffffffffffffffffffffffffffffffffffff16318211155b15156103d0576040517f08c379a00000000000000000000000000000000000000000000000000000000081526004018080602001828103825260128152602001807f656e7465722076616c696420616d6f756e74000000000000000000000000000081525060200191505060405180910390fd5b600560009054906101000a900473ffffffffffffffffffffffffffffffffffffffff1673ffffffffffffffffffffffffffffffffffffffff166108fc839081150290604051600060405180830381858888f19350505050158015610438573d6000803e3d6000fd5b50919050565b606080606060008060036040519080825280602002602001820160405280156104765781602001602082028038833980820191505090505b5092506000915060016000805490500390505b600360008054905003811115610533576000818154811015156104a857fe5b9060005260206000200160009054906101000a900473ffffffffffffffffffffffffffffffffffffffff1683838151811015156104e157fe5b9060200190602002019073ffffffffffffffffffffffffffffffffffffffff16908173ffffffffffffffffffffffffffffffffffffffff16815250508180600101925050808060019003915050610489565b600083818054806020026020016040519081016040528092919081815260200182805480156105b757602002820191906000526020600020905b8160009054906101000a900473ffffffffffffffffffffffffffffffffffffffff1673ffffffffffffffffffffffffffffffffffffffff168152602001906001019080831161056d575b50505050509150945094505050509091565b6000806004543073ffffffffffffffffffffffffffffffffffffffff1631915091509091565b60016020528060005260406000206000915054906101000a900473ffffffffffffffffffffffffffffffffffffffff1681565b6000806000806000670de0b6b3a7640000341015801561064a5750678ac7230489e800003411155b15156106be576040517f08c379a00000000000000000000000000000000000000000000000000000000081526004018080602001828103825260118152602001807f656e7465722076616c69642076616c756500000000000000000000000000000081525060200191505060405180910390fd5b600073ffffffffffffffffffffffffffffffffffffffff168673ffffffffffffffffffffffffffffffffffffffff1614156108185760001515600260009054906101000a900460ff16151514151561077e576040517f08c379a000000000000000000000000000000000000000000000000000000000815260040180806020018281038252601b8152602001807f307830302061646472657373206973206e6f7420616c6c6f776564000000000081525060200191505060405180910390fd5b60003390806001815401808255809150509060018203906000526020600020016000909192909190916101000a81548173ffffffffffffffffffffffffffffffffffffffff021916908373ffffffffffffffffffffffffffffffffffffffff160217905550506001600260006101000a81548160ff0219169083151502179055503460046000828254019250508190555060019450610f8c565b60646005340281151561082757fe5b04935060008081548110151561083957fe5b9060005260206000200160009054906101000a900473ffffffffffffffffffffffffffffffffffffffff1673ffffffffffffffffffffffffffffffffffffffff168673ffffffffffffffffffffffffffffffffffffffff161415610a165760003390806001815401808255809150509060018203906000526020600020016000909192909190916101000a81548173ffffffffffffffffffffffffffffffffffffffff021916908373ffffffffffffffffffffffffffffffffffffffff1602179055505085600160003373ffffffffffffffffffffffffffffffffffffffff1673ffffffffffffffffffffffffffffffffffffffff16815260200190815260200160002060006101000a81548173ffffffffffffffffffffffffffffffffffffffff021916908373ffffffffffffffffffffffffffffffffffffffff16021790555060008081548110151561098a57fe5b9060005260206000200160009054906101000a900473ffffffffffffffffffffffffffffffffffffffff1673ffffffffffffffffffffffffffffffffffffffff166108fc859081150290604051600060405180830381858888f193505050501580156109fa573d6000803e3d6000fd5b5083340360046000828254019250508190555060019450610f8c565b60006001815481101515610a2657fe5b9060005260206000200160009054906101000a900473ffffffffffffffffffffffffffffffffffffffff1673ffffffffffffffffffffffffffffffffffffffff168673ffffffffffffffffffffffffffffffffffffffff161415610c875760003390806001815401808255809150509060018203906000526020600020016000909192909190916101000a81548173ffffffffffffffffffffffffffffffffffffffff021916908373ffffffffffffffffffffffffffffffffffffffff1602179055505085600160003373ffffffffffffffffffffffffffffffffffffffff1673ffffffffffffffffffffffffffffffffffffffff16815260200190815260200160002060006101000a81548173ffffffffffffffffffffffffffffffffffffffff021916908373ffffffffffffffffffffffffffffffffffffffff16021790555060006001815481101515610b7857fe5b9060005260206000200160009054906101000a900473ffffffffffffffffffffffffffffffffffffffff1673ffffffffffffffffffffffffffffffffffffffff166108fc859081150290604051600060405180830381858888f19350505050158015610be8573d6000803e3d6000fd5b50600080815481101515610bf857fe5b9060005260206000200160009054906101000a900473ffffffffffffffffffffffffffffffffffffffff1673ffffffffffffffffffffffffffffffffffffffff166108fc859081150290604051600060405180830381858888f19350505050158015610c68573d6000803e3d6000fd5b5083600202340360046000828254019250508190555060019450610f8c565b600092505b600080549050831015610f8b57600083815481101515610ca857fe5b9060005260206000200160009054906101000a900473ffffffffffffffffffffffffffffffffffffffff1673ffffffffffffffffffffffffffffffffffffffff168673ffffffffffffffffffffffffffffffffffffffff161415610f7e5760003390806001815401808255809150509060018203906000526020600020016000909192909190916101000a81548173ffffffffffffffffffffffffffffffffffffffff021916908373ffffffffffffffffffffffffffffffffffffffff1602179055505085600160003373ffffffffffffffffffffffffffffffffffffffff1673ffffffffffffffffffffffffffffffffffffffff16815260200190815260200160002060006101000a81548173ffffffffffffffffffffffffffffffffffffffff021916908373ffffffffffffffffffffffffffffffffffffffff160217905550610df386610f95565b9150610dfe82610f95565b90508573ffffffffffffffffffffffffffffffffffffffff166108fc859081150290604051600060405180830381858888f19350505050158015610e46573d6000803e3d6000fd5b50833403600460008282540192505081905550600073ffffffffffffffffffffffffffffffffffffffff168273ffffffffffffffffffffffffffffffffffffffff16141515610ee7578173ffffffffffffffffffffffffffffffffffffffff166108fc859081150290604051600060405180830381858888f19350505050158015610ed5573d6000803e3d6000fd5b50836004600082825403925050819055505b600073ffffffffffffffffffffffffffffffffffffffff168173ffffffffffffffffffffffffffffffffffffffff16141515610f75578073ffffffffffffffffffffffffffffffffffffffff166108fc859081150290604051600060405180830381858888f19350505050158015610f63573d6000803e3d6000fd5b50836004600082825403925050819055505b60019450610f8c565b8280600101935050610c8c565b5b50505050919050565b600080600160008473ffffffffffffffffffffffffffffffffffffffff1673ffffffffffffffffffffffffffffffffffffffff16815260200190815260200160002060009054906101000a900473ffffffffffffffffffffffffffffffffffffffff169050809150509190505600a165627a7a72305820cdbff395b6d8f781e95de8659cc7ec80fd6e256903b7ab3bcd9296a785e3edab0029",
  "source": "pragma solidity ^0.4.24;\n\ncontract Donation{\n    \n    address[] participants;\n    mapping (address => address) public referred;\n    bool zero;\n    address[] a;\n    uint total;\n    address owner;\n    \n    constructor() \n    public {\n    owner = msg.sender;    \n    }\n    \n    function donation(address _referral) \n    public\n    payable\n    returns(bool) {\n        require(msg.value >= 1 ether && msg.value <= 10 ether,\"enter valid value\");\n        if(_referral == 0x0000000000000000000000000000000000000000){\n            require(zero == false,\"0x00 address is not allowed\");\n            participants.push(msg.sender);\n            zero = true;\n            total += msg.value;\n            return true;\n        }\n        uint val = msg.value*5/100;\n        if(_referral == participants[0]) {\n            participants.push(msg.sender);\n            referred[msg.sender] = _referral;\n            participants[0].transfer(val);\n            total += msg.value - val;\n            return true;\n        }\n        if(_referral == participants[1]) {\n            participants.push(msg.sender);\n            referred[msg.sender] = _referral;\n            participants[1].transfer(val);\n            participants[0].transfer(val);\n            total += msg.value - 2 * val;\n            return true;\n        }\n        for(uint i = 0;i< participants.length ; i++) {\n            if(_referral == participants[i]){\n                participants.push(msg.sender);\n                referred[msg.sender] = _referral;\n                address add1 = find(_referral);\n                address add2 = find(add1);\n                _referral.transfer(val);\n                total += msg.value -val;\n                if(add1 != 0x0000000000000000000000000000000000000000){\n                    add1.transfer(val);\n                    total -= val;\n                }\n                if(add2 != 0x0000000000000000000000000000000000000000){\n                    add2.transfer(val);\n                    total -= val;\n                }\n                return true;\n            }\n        }\n        \n    }\n    \n    function find(address _referral)\n    internal\n    view\n    returns (address){\n        address addr = referred[_referral];\n        return addr;\n        \n    }\n    function getParticipants()\n    public\n    view\n    returns(address[] all,address[] recent) {\n        address[] memory ab = new address[](3);\n        uint j=0;\n        \n        for(uint i=participants.length-1;i>participants.length-3;i--) {\n            ab[j] = participants[i];\n            j++;\n        }\n        \n        return (participants,ab);\n    }\n    function getTotal()\n    public\n    view\n    returns(uint totalDonation,uint contractbalance) {\n        return (total,address(this).balance);\n    }\n    function withdraw(uint _amount)\n    public\n    returns (bool) {\n        require(msg.sender == owner,\"only owner can call\");\n        require(_amount > 0 wei && _amount <= address(this).balance,\"enter valid amount\");\n        owner.transfer(_amount);\n    }\n    \n}\n",
  "sourcePath": "/home/appinventiv/truffletest/contracts/Donation.sol",
  "compiler": {
    "name": "solc",
    "version": "0.4.24+commit.e67f0147.Emscripten.clang"
  },
  "schemaVersion": "2.0.1",
  "updatedAt": "2018-09-24T13:10:07.500Z"
}